:100000000C942A000C94550F0C94820F0C94AF0F93
:100010000C9447000C9447000C9447000C94470044
:100020000C9447000C9447000C9447000C94470034
:100030000C9447000C9447000C9447000C94470024
:100040000C9447000C9447000C9447000C94470014
:100050000C94470011241FBECFE5D8E0DEBFCDBF12
:1000600010E0A0E6B0E0E4EAF1E202C005900D92F3
:10007000A038B107D9F710E0A0E8B0E001C01D92A8
:10008000A738B107E1F70E9429100C94D0100C9406
:100090000000EF92FF920F931F937B018C0120E0F1
:1000A00030E040E05FE40E94490388238CF0C801FF
:1000B000B70120E030E040E05FE40E94C1010E940F
:1000C000A9039B01AC01205030404040504806C07D
:1000D000C801B7010E94A9039B01AC01B901CA0183
:1000E0001F910F91FF90EF900895A0E0B0E0EBE733
:1000F000F0E00C949910DC012B01FA019C919230F4
:1001000008F439C1EB018881823008F433C194309E
:1001100069F4843009F02FC111969C91119789815F
:10012000981709F428C1A7E7B0E025C1843009F485
:1001300021C18230A9F4923009F01DC19A01AD01AC
:1001400088E0EA010990AE01E90109929E0181501F
:10015000C1F7E201898111969C918923818308C1AD
:10016000923009F407C112962D903C901397EB0141
:100170008A819B811496AD90BD90CD90DC901797AD
:10018000EC80FD800E811F819101281B390BB90184
:1001900037FF04C066277727621B730B6032710537
:1001A0000CF061C0121613066CF537014801062EDB
:1001B00004C096948794779467940A94D2F721E0C8
:1001C00030E040E050E004C0220F331F441F551FB1
:1001D0006A95D2F721503040404050402E213F21B7
:1001E00040235123211531054105510521F021E01E
:1001F00030E040E050E079018A01E628F72808293C
:1002000019293CC0232BD1F1260E371E350146019A
:10021000062E04C096948794779467940A94D2F734
:1002200021E030E040E050E004C0220F331F441FC3
:10023000551F6A95D2F721503040404050402A2146
:100240003B214C215D21211531054105510521F04E
:1002500021E030E040E050E059016A01A628B728CB
:10026000C828D9280BC0821593052CF01C01AA249C
:10027000BB24650103C0EE24FF24870111969C91E5
:10028000D20111968C91981709F445C0992339F041
:10029000A80197012A193B094C095D0906C0A6016E
:1002A00095012E193F09400B510B57FD08C01182D3
:1002B0003382228224833583468357831DC081E0A5
:1002C00081833382228288279927DC01821B930B4A
:1002D000A40BB50B84839583A683B7830DC0220F2F
:1002E000331F441F551F24833583468357838281E0
:1002F000938101979383828324813581468157813D
:10030000DA01C9010197A109B1098F5F9F4FAF4F72
:10031000BF4328F30BC0918333822282EA0CFB1C7B
:100320000C1D1D1DE482F5820683178383E0808304
:10033000248135814681578157FF1AC0C901AA27F8
:1003400097FDA095BA2F81709070A070B0705695EF
:10035000479537952795822B932BA42BB52B848318
:100360009583A683B7838281938101969383828349
:10037000DF0101C0D201CD01CDB7DEB7E2E10C94BF
:10038000B510A0E2B0E0E7ECF1E00C94A5106983B1
:100390007A838B839C832D833E834F835887E9E048
:1003A000EE2EF12CEC0EFD1ECE010196B7010E943F
:1003B000D2048E010F5E1F4FCE010596B8010E9438
:1003C000D2048A8991E089278A8BC701B801AE01DE
:1003D000475E5F4F0E9475000E94FD03A096E6E015
:1003E0000C94C110A0E2B0E0E8EFF1E00C94A5108D
:1003F00069837A838B839C832D833E834F835887C5
:10040000F9E0EF2EF12CEC0EFD1ECE010196B701A6
:100410000E94D2048E010F5E1F4FCE010596B801D7
:100420000E94D204C701B801AE01475E5F4F0E942F
:1004300075000E94FD03A096E6E00C94C110A0E2B6
:10044000B0E0E5E2F2E00C94991069837A838B8343
:100450009C832D833E834F835887CE010196BE0136
:10046000675F7F4F0E94D204CE010596BE016F5E8A
:100470007F4F0E94D2049985923088F0898982301A
:10048000C8F0943019F4823051F404C0843029F457
:10049000923081F487E790E0C6C0923049F420E0C2
:1004A0009A858A89981321E02A87CE010996BBC0D4
:1004B000823049F420E09A858A89981321E02A8BBA
:1004C000CE014196B0C02D843E844F8458886D88FB
:1004D0007E888F88988CEE24FF248701AA24BB2471
:1004E000650140E050E060E070E0E0E0F0E0C10174
:1004F00081709070892BE9F0E60CF71C081D191D1E
:100500009A01AB012A0D3B1D4C1D5D1D80E090E062
:10051000A0E0B0E0E614F7040805190520F481E036
:1005200090E0A0E0B0E0BA01A901480F591F6A1F8E
:100530007B1FAA0CBB1CCC1CDD1C97FE08C081E0F5
:1005400090E0A0E0B0E0A82AB92ACA2ADB2A3196B6
:10055000E032F10549F0660C771C881C991C569412
:10056000479437942794C3CFFA85EA892B893C892D
:100570008B859C85280F391F2E5F3F4F17C0CA01FE
:1005800081709070892B61F016950795F794E79428
:1005900080E090E0A0E0B0E8E82AF92A0A2B1B2BC3
:1005A00076956795579547952F5F3F4F77FDE7CF36
:1005B0000CC0440F551F661F771F17FD4160EE0CDE
:1005C000FF1C001F111F21503040403090E05907A0
:1005D00090E0690790E4790760F32B8F3C8FDB0193
:1005E000CA018F779070A070B07080349105A1051A
:1005F000B10561F447FD0AC0E114F10401051105DC
:1006000029F0405C5F4F6F4F7F4F40781A8EFE1786
:1006100011F081E08A8F4D8F5E8F6F8F78A383E01A
:10062000898FCE0149960E94FD03A096E2E10C94C9
:10063000B510A8E1B0E0EFE1F3E00C94A5106983F8
:100640007A838B839C832D833E834F83588789E0F5
:10065000E82EF12CEC0EFD1ECE010196B7010E9492
:10066000D2048E010F5E1F4FCE010596B8010E9485
:10067000D2048985823040F08989823028F0C70110
:10068000B8010E944A0501C08FEF6896E6E00C941D
:10069000C110A8E1B0E0EFE4F3E00C94A510698389
:1006A0007A838B839C832D833E834F83588789E095
:1006B000E82EF12CEC0EFD1ECE010196B7010E9432
:1006C000D2048E010F5E1F4FCE010596B8010E9425
:1006D000D2048985823040F08989823028F0C701B0
:1006E000B8010E944A0501C08FEF6896E6E00C94BD
:1006F000C110A8E1B0E0EFE7F3E00C94A510698326
:100700007A838B839C832D833E834F83588789E034
:10071000E82EF12CEC0EFD1ECE010196B7010E94D1
:10072000D2048E010F5E1F4FCE010596B8010E94C4
:10073000D2048985823040F08989823028F0C7014F
:10074000B8010E944A0501C081E06896E6E00C9479
:10075000C110ACE0B0E0EFEAF3E00C94A9106983BB
:100760007A838B839C83CE010196BE016B5F7F4FA2
:100770000E94D2048D81823061F1823050F1843048
:1007800021F48E81882351F12EC02F81388537FDC9
:1007900020C06E812F3131051CF06623F9F023C093
:1007A0008EE190E0821B930B29853A854B855C8511
:1007B00004C056954795379527958A95D2F76623B5
:1007C000B1F050954095309521953F4F4F4F5F4F79
:1007D0000EC020E030E040E050E009C02FEF3FEFD6
:1007E0004FEF5FE704C020E030E040E050E8B9019F
:1007F000CA012C96E2E00C94C510DF92EF92FF92B2
:100800000F931F93FC01E480F58006811781D1804E
:100810008081823048F480E090E0A0E1B0E0E82AF6
:10082000F92A0A2B1B2BA5C0843009F49FC0823003
:1008300021F4EE24FF24870105C0E114F104010531
:10084000110519F4E0E0F0E096C0628173819FEF3A
:10085000623879070CF05BC022E83FEF261B370BAC
:100860002A3131052CF020E030E040E050E02AC091
:10087000B801A701022E04C0769567955795479554
:100880000A94D2F781E090E0A0E0B0E004C0880FC5
:10089000991FAA1FBB1F2A95D2F70197A109B10979
:1008A0008E219F21A023B1230097A105B10521F03E
:1008B00081E090E0A0E0B0E09A01AB01282B392B59
:1008C0004A2B5B2BDA01C9018F779070A070B07052
:1008D00080349105A105B10539F427FF09C0205CDA
:1008E0003F4F4F4F5F4F04C0215C3F4F4F4F5F4F13
:1008F000E0E0F0E02030A0E03A07A0E04A07A0E402
:100900005A0710F0E1E0F0E079018A0127C0603871
:10091000710564F5FB01E158FF4FD801C7018F77DE
:100920009070A070B07080349105A105B10539F4C4
:10093000E7FE0DC080E490E0A0E0B0E004C08FE3EB
:1009400090E0A0E0B0E0E80EF91E0A1F1B1F17FFA1
:1009500005C016950795F794E794319687E01695AC
:100960000795F794E7948A95D1F705C0EE24FF2404
:100970008701EFEFF0E06E2F679566276795902F60
:100980009F77D794DD24D7948E2F8695492F462BB9
:10099000582F5D29B701CA011F910F91FF90EF9069
:1009A000DF900895FC01DB01408151812281622F9B
:1009B0006F7770E0221F2227221F9381892F880FD3
:1009C000822B282F30E0991F9927991F11969C930D
:1009D000119721153105A9F54115510561057105DD
:1009E00011F482E037C082E89FEF13969C938E93B8
:1009F00012979A01AB0167E0220F331F441F551F66
:100A00006A95D1F783E08C930DC0220F331F441FEA
:100A1000551F12968D919C911397019713969C9355
:100A20008E931297203080E0380780E0480780E4FA
:100A3000580758F314962D933D934D935C93179755
:100A400008952F3F310579F4411551056105710570
:100A500019F484E08C93089564FF03C081E08C93C3
:100A600012C01C9210C02F57304013963C932E9307
:100A7000129783E08C9387E0440F551F661F771F02
:100A80008A95D1F7706414964D935D936D937C9322
:100A9000179708951F93DC01FB019C91923008F495
:100AA00047C08081823008F443C0943051F41196DD
:100AB0001C91843099F58181682F70E0611B710968
:100AC0003FC0843021F0923031F48230B9F181811D
:100AD000882389F12DC011961C9111978230F1F075
:100AE00081811817D9F412962D913C911397828128
:100AF00093818217930794F028173907BCF0149656
:100B00008D919D910D90BC91A02D248135814681C0
:100B10005781281739074A075B0718F4112341F05A
:100B20000AC082179307A407B50740F4112319F0F0
:100B300061E070E005C06FEF7FEF02C060E070E041
:100B4000CB011F910895DF93CF93CDB7DEB72F97D9
:100B50000FB6F894DEBF0FBECDBF8F8784E062E092
:100B600041E00E94DA0B84E061E040E00E94DA0B91
:100B700083E06F850E94980B84E060E041E00E9472
:100B8000DA0B80E090E0A0E8BFE38B879C87AD871D
:100B9000BE876B857C858D859E8520E030E04AEFA1
:100BA00054E40E941F02DC01CB018F839887A98740
:100BB000BA876F81788589859A8520E030E040E8A2
:100BC0005FE30E94790388232CF481E090E09E8308
:100BD0008D833FC06F81788589859A8520E03FEFBE
:100BE0004FE757E40E94190318164CF56B857C8576
:100BF0008D859E8520E030E040E251E40E941F0296
:100C0000DC01CB01BC01CD010E944900DC01CB011C
:100C10009E838D830FC088EC90E09C838B838B81B7
:100C20009C810197F1F79C838B838D819E81019735
:100C30009E838D838D819E81009769F714C06F819B
:100C4000788589859A850E944900DC01CB019E83C5
:100C50008D838D819E819A83898389819A81019771
:100C6000F1F79A83898384E060E040E00E94DA0B28
:100C70002F960FB6F894DEBF0FBECDBFCF91DF9198
:100C80000895DF93CF93CDB7DEB72F970FB6F894C3
:100C9000DEBF0FBECDBF8F8784E062E040E00E94E0
:100CA000DA0B84E061E040E00E94DA0B83E06F85BC
:100CB0000E94980B84E060E041E00E94DA0B80E043
:100CC00090E0A0E8BFE38B879C87AD87BE876B85EC
:100CD0007C858D859E8520E030E04AEF54E40E94BB
:100CE0001F02DC01CB018F839887A987BA876F81A8
:100CF000788589859A8520E030E040E85FE30E94AE
:100D0000790388232CF481E090E09E838D833FC09B
:100D10006F81788589859A8520E03FEF4FE757E41A
:100D20000E94190318164CF56B857C858D859E8570
:100D300020E030E040E251E40E941F02DC01CB01E0
:100D4000BC01CD010E944900DC01CB019E838D8353
:100D50000FC088EC90E09C838B838B819C810197F2
:100D6000F1F79C838B838D819E8101979E838D8378
:100D70008D819E81009769F714C06F817885898580
:100D80009A850E944900DC01CB019E838D838D8171
:100D90009E819A83898389819A810197F1F79A8349
:100DA000898384E060E040E00E94DA0B2F960FB662
:100DB000F894DEBF0FBECDBFCF91DF910895DF93D2
:100DC000CF93CDB7DEB7E8970FB6F894DEBF0FBE6E
:100DD000CDBF83E06FEF0E94580A84E060E041E0FD
:100DE0000E949A0A84E061E041E00E949A0A84E04D
:100DF00062E041E00E949A0A80E090E0A0E8BFE350
:100E00008DAB9EABAFABB8AF6DA97EA98FA998ADE6
:100E100020E030E04AEF54E40E941F02DC01CB01E5
:100E200089AB9AABABABBCAB69A97AA98BA99CA9DE
:100E300020E030E040E85FE30E94790388232CF44F
:100E400081E090E098AB8FA73FC069A97AA98BA9F0
:100E50009CA920E03FEF4FE757E40E9419031816C2
:100E60004CF56DA97EA98FA998AD20E030E040E255
:100E700051E40E941F02DC01CB01BC01CD010E94A4
:100E80004900DC01CB0198AB8FA70FC088EC90E044
:100E90009EA78DA78DA59EA50197F1F79EA78DA76B
:100EA0008FA598A9019798AB8FA78FA598A90097B0
:100EB00069F714C069A97AA98BA99CA90E94490065
:100EC000DC01CB0198AB8FA78FA598A99CA78BA716
:100ED0008BA59CA50197F1F79CA78BA788E30E949F
:100EE000410680E090E0A0E8BFE38FA398A7A9A700
:100EF000BAA76FA178A589A59AA520E030E04AEFAE
:100F000054E40E941F02DC01CB018BA39CA3ADA380
:100F1000BEA36BA17CA18DA19EA120E030E040E8A2
:100F20005FE30E94790388232CF481E090E09AA388
:100F300089A33FC06BA17CA18DA19EA120E03FEFC2
:100F40004FE757E40E94190318164CF56FA178A5D6
:100F500089A59AA520E030E040E251E40E941F02FA
:100F6000DC01CB01BC01CD010E944900DC01CB01B9
:100F70009AA389A30FC088EC90E098A38F8F8F8DE0
:100F800098A10197F1F798A38F8F89A19AA1019752
:100F90009AA389A389A19AA1009769F714C06BA1AC
:100FA0007CA18DA19EA10E944900DC01CB019AA3E6
:100FB00089A389A19AA19E8F8D8F8D8D9E8D01977A
:100FC000F1F79E8F8D8F8CE00E94410680E090E0CB
:100FD000A0E8BFE3898F9A8FAB8FBC8F698D7A8D24
:100FE0008B8D9C8D20E030E04AEF54E40E941F027C
:100FF000DC01CB018D8B9E8BAF8BB88F6D897E8989
:101000008F89988D20E030E040E85FE30E9479030B
:1010100088232CF481E090E09C8B8B8B3FC06D8902
:101020007E898F89988D20E03FEF4FE757E40E943B
:10103000190318164CF5698D7A8D8B8D9C8D20E0E7
:1010400030E040E251E40E941F02DC01CB01BC0110
:10105000CD010E944900DC01CB019C8B8B8B0FC022
:1010600088EC90E09A8B898B89899A890197F1F7AE
:101070009A8B898B8B899C8901979C8B8B8B8B8915
:101080009C89009769F714C06D897E898F89988D36
:101090000E944900DC01CB019C8B8B8B8B899C8946
:1010A000988B8F878F8598890197F1F7988B8F8719
:1010B00081E00E94410680E090E0A0E8BFE38B87DA
:1010C0009C87AD87BE876B857C858D859E8520E05E
:1010D00030E04AEF54E40E941F02DC01CB018F8311
:1010E0009887A987BA876F81788589859A8520E056
:1010F00030E040E85FE30E94790388232CF481E02C
:1011000090E09E838D833FC06F81788589859A8525
:1011100020E03FEF4FE757E40E94190318164CF503
:101120006B857C858D859E8520E030E040E251E432
:101130000E941F02DC01CB01BC01CD010E944900CD
:10114000DC01CB019E838D830FC088EC90E09C83F3
:101150008B838B819C810197F1F79C838B838D819D
:101160009E8101979E838D838D819E81009769F773
:1011700014C06F81788589859A850E944900DC01B9
:10118000CB019E838D838D819E819A838983898102
:101190009A810197F1F79A838983E8960FB6F894BC
:1011A000DEBF0FBECDBFCF91DF910895DF93CF9308
:1011B00000D00F92CDB7DEB79B838A8319820EC011
:1011C0008981282F30E08A819B81FC01E20FF31F87
:1011D00080810E94A30589818F5F89838981282F5F
:1011E00030E08A819B81FC01E20FF31F808188231C
:1011F00039F70F900F900F90CF91DF910895DF9303
:10120000CF9300D000D00F92CDB7DEB78A836B8327
:1012100019828B81282F30E03D832C838C819D8126
:10122000009731F02C813D812130310521F006C03D
:101230008A81898303C08A81805C898389818058FF
:101240000E9441060F900F900F900F900F90CF913A
:10125000DF910895DF93CF93CDB7DEB781E00E9491
:101260004106CF91DF910895DF93CF93CDB7DEB7DD
:1012700027970FB6F894DEBF0FBECDBF8B836C836C
:101280004D833F832E838B81882F90E0880F991F99
:10129000880F991F880F991F8A838A81805C0E941A
:1012A000410619820EC08981282F30E08E819F81EE
:1012B000FC01E20FF31F80810E94A30589818F5FEB
:1012C00089838981883078F38C816D810E94FF0841
:1012D0008B810E94A30527960FB6F894DEBF0FBE40
:1012E000CDBFCF91DF9108950F931F93DF93CF93DD
:1012F000CDB7DEB7C757D0400FB6F894DEBF0FBEEC
:10130000CDBFFE01EA58FF4F91838083188A84E69F
:10131000FE017296DF01982F1D929A95E9F7FE0162
:10132000EA58FF4F808191812AE030E0B9010E94A4
:101330008510898B8E010A581F4FFE01EA58FF4F16
:10134000808191812AE030E0B9010E948510CB01B3
:10135000D80111969C938E938889282F30E0898933
:10136000482F405DCE014296FC01E20FF31F4083FF
:1013700088898F5F888BFE01EA58FF4F80819181B9
:10138000009769F688898F8783C08F85882F90E0C2
:101390009C0121503040CE014296FC01E20FF31F28
:1013A00080810E94A30580E090E0A0E8BFE38B87E6
:1013B0009C87AD87BE876B857C858D859E8520E06B
:1013C00030E04AEF54E40E941F02DC01CB018F831E
:1013D0009887A987BA876F81788589859A8520E063
:1013E00030E040E85FE30E94790388232CF481E039
:1013F00090E09E838D833FC06F81788589859A8533
:1014000020E03FEF4FE757E40E94190318164CF510
:101410006B857C858D859E8520E030E040E251E43F
:101420000E941F02DC01CB01BC01CD010E944900DA
:10143000DC01CB019E838D830FC088EC90E09C8300
:101440008B838B819C810197F1F79C838B838D81AA
:101450009E8101979E838D838D819E81009769F780
:1014600014C06F81788589859A850E944900DC01C6
:10147000CB019E838D838D819E819A83898389810F
:101480009A810197F1F79A8389838F8581508F879D
:101490008F85882309F079CFC958DF4F0FB6F894AC
:1014A000DEBF0FBECDBFCF91DF911F910F91089589
:1014B000DF93CF9300D000D0CDB7DEB789836A83A6
:1014C0008981282F30E03C832B838B819C81823063
:1014D0009105D9F02B813C812330310534F48B8187
:1014E0009C818130910561F01EC02B813C812330AD
:1014F000310581F08B819C818430910581F013C08E
:10150000EAE3F0E08A8180830EC0E7E3F0E08A81BD
:10151000808309C0E4E3F0E08A81808304C0E1E3D2
:10152000F0E08A8180830F900F900F900F90CF9101
:10153000DF910895DF93CF93CDB7DEB727970FB62E
:10154000F894DEBF0FBECDBF89836A834B838B8146
:10155000813009F070C08981282F30E03F832E83CD
:101560008E819F818230910551F12E813F81233000
:10157000310534F48E819F818130910561F0CFC0B7
:101580002E813F812330310571F18E819F8184301E
:101590009105E9F1C4C0AAE3B0E0EAE3F0E080819C
:1015A000482F8A81282F30E081E090E0022E02C08F
:1015B000880F991F0A94E2F7842B8C93B0C0A7E39D
:1015C000B0E0E7E3F0E08081482F8A81282F30E007
:1015D00081E090E0022E02C0880F991F0A94E2F782
:1015E000842B8C939CC0A4E3B0E0E4E3F0E0808122
:1015F000482F8A81282F30E081E090E0022E02C03F
:10160000880F991F0A94E2F7842B8C9388C0A1E37A
:10161000B0E0E1E3F0E08081482F8A81282F30E0BC
:1016200081E090E0022E02C0880F991F0A94E2F731
:10163000842B8C9374C08981282F30E03D832C83C8
:101640008C819D818230910561F12C813D81233017
:10165000310534F48C819D818130910569F05FC042
:101660002C813D812330310589F18C819D8184302D
:10167000910509F440C053C0AAE3B0E0EAE3F0E00A
:101680008081482F8A81282F30E081E090E0022E6F
:1016900002C0880F991F0A94E2F7809584238C93E7
:1016A0003EC0A7E3B0E0E7E3F0E08081482F8A8105
:1016B000282F30E081E090E0022E02C0880F991FB1
:1016C0000A94E2F7809584238C9329C0A4E3B0E0C8
:1016D000E4E3F0E08081482F8A81282F30E081E028
:1016E00090E0022E02C0880F991F0A94E2F78095BD
:1016F00084238C9314C0A1E3B0E0E1E3F0E08081A7
:10170000482F8A81282F30E081E090E0022E02C02D
:10171000880F991F0A94E2F7809584238C9327966B
:101720000FB6F894DEBF0FBECDBFCF91DF91089505
:10173000DF93CF9300D000D0CDB7DEB789836A8323
:101740008981282F30E03C832B838B819C818230E0
:101750009105D9F02B813C812330310534F48B8104
:101760009C818130910561F01EC02B813C8123302A
:10177000310581F08B819C818430910581F013C00B
:10178000EBE3F0E08A8180830EC0E8E3F0E08A8139
:10179000808309C0E5E3F0E08A81808304C0E2E34E
:1017A000F0E08A8180830F900F900F900F90CF917F
:1017B000DF910895DF93CF93CDB7DEB727970FB6AC
:1017C000F894DEBF0FBECDBF89836A834B838B81C4
:1017D000813009F070C08981282F30E03F832E834B
:1017E0008E819F818230910551F12E813F8123307E
:1017F000310534F48E819F818130910561F0CFC035
:101800002E813F812330310571F18E819F8184309B
:101810009105E9F1C4C0ABE3B0E0EBE3F0E0808117
:10182000482F8A81282F30E081E090E0022E02C00C
:10183000880F991F0A94E2F7842B8C93B0C0A8E319
:10184000B0E0E8E3F0E08081482F8A81282F30E083
:1018500081E090E0022E02C0880F991F0A94E2F7FF
:10186000842B8C939CC0A5E3B0E0E5E3F0E080819D
:10187000482F8A81282F30E081E090E0022E02C0BC
:10188000880F991F0A94E2F7842B8C9388C0A2E3F7
:10189000B0E0E2E3F0E08081482F8A81282F30E039
:1018A00081E090E0022E02C0880F991F0A94E2F7AF
:1018B000842B8C9374C08981282F30E03D832C8346
:1018C0008C819D818230910561F12C813D81233095
:1018D000310534F48C819D818130910569F05FC0C0
:1018E0002C813D812330310589F18C819D818430AB
:1018F000910509F440C053C0ABE3B0E0EBE3F0E086
:101900008081482F8A81282F30E081E090E0022EEC
:1019100002C0880F991F0A94E2F7809584238C9364
:101920003EC0A8E3B0E0E8E3F0E08081482F8A8180
:10193000282F30E081E090E0022E02C0880F991F2E
:101940000A94E2F7809584238C9329C0A5E3B0E044
:10195000E5E3F0E08081482F8A81282F30E081E0A4
:1019600090E0022E02C0880F991F0A94E2F780953A
:1019700084238C9314C0A2E3B0E0E2E3F0E0808122
:10198000482F8A81282F30E081E090E0022E02C0AB
:10199000880F991F0A94E2F7809584238C932796E9
:1019A0000FB6F894DEBF0FBECDBFCF91DF91089583
:1019B000DF93CF9300D000D00F92CDB7DEB78A83EC
:1019C0006B8319828A81282F30E03D832C834C81E0
:1019D0005D814230510541F18C819D8183309105BB
:1019E00034F42C813D812130310561F052C04C81AD
:1019F0005D814330510551F18C819D818430910589
:101A0000B9F147C0E9E3F0E08081282F30E08B8115
:101A1000882F90E0A90102C0559547958A95E2F775
:101A2000CA018170898335C0E6E3F0E08081282F08
:101A300030E08B81882F90E0A90102C05595479531
:101A40008A95E2F7CA018170898323C0E3E3F0E05D
:101A50008081282F30E08B81882F90E0A90102C07F
:101A6000559547958A95E2F7CA018170898311C01F
:101A7000E0E3F0E08081282F30E08B81882F90E038
:101A8000A90102C0559547958A95E2F7CA01817070
:101A9000898389810F900F900F900F900F90CF91B5
:101AA000DF910895DF93CF9300D0CDB7DEB7898360
:101AB0006A8389816A810E94D80C882331F48981E4
:101AC0006A8141E00E94DA0B0BC089816A810E9421
:101AD000D80C813029F489816A8140E00E94DA0BB8
:101AE0000F900F90CF91DF910895DF93CF9300D0A7
:101AF000CDB7DEB78A83198207C08A8169810E94C7
:101B0000520D89818F5F898389818830B0F30F906E
:101B10000F90CF91DF910895DF93CF93CDB7DEB7CC
:101B20002A970FB6F894DEBF0FBECDBF89836A83B4
:101B30008981282F30E03A87298789859A858130E5
:101B4000910551F129853A852230310509F443C0C8
:101B500089859A85009709F05CC08A81282F30E03A
:101B600038872F838F819885009731F02F813885B2
:101B70002130310549F04DC0ABE5B0E0EBE5F0E0D8
:101B8000808180648C9345C0ABE5B0E0EBE5F0E08C
:101B900080818F7B8C933DC08A81282F30E03E83EB
:101BA0002D838D819E81009731F02D813E812130E2
:101BB000310549F02EC0ABE5B0E0EBE5F0E0808107
:101BC00080688C9326C0ABE5B0E0EBE5F0E0808167
:101BD0008F778C931EC08A81282F30E03C832B8323
:101BE0008B819C81009731F02B813C812130310524
:101BF00049F00FC0ABE5B0E0EBE5F0E0808180623A
:101C00008C9307C0ABE5B0E0EBE5F0E080818F7D21
:101C10008C932A960FB6F894DEBF0FBECDBFCF913E
:101C2000DF910895DF93CF93CDB7DEB72A970FB634
:101C3000F894DEBF0FBECDBF89836A838981282FC8
:101C400030E03A87298789859A858130910509F4A2
:101C500066C029853A852230310509F4BBC08985E3
:101C60009A85009709F0D5C08A81282F30E03887FF
:101C70002F838F8198858130910521F12F813885BF
:101C8000223031052CF48F819885009761F0C1C016
:101C90002F8138852230310521F18F81988583305D
:101CA000910571F1B6C0A5E5B0E0E5E5F0E0808111
:101CB0008E7F8C93A5E5B0E0E5E5F0E080818D7F37
:101CC0008C93A7C0A5E5B0E0E5E5F0E080818160F8
:101CD0008C93A5E5B0E0E5E5F0E080818D7F8C9305
:101CE00098C0A5E5B0E0E5E5F0E080818E7F8C93BB
:101CF000A5E5B0E0E5E5F0E0808182608C9389C0E5
:101D0000A5E5B0E0E5E5F0E0808181608C93A5E594
:101D1000B0E0E5E5F0E0808182608C937AC08A8152
:101D2000282F30E03E832D838D819E818130910567
:101D300021F12D813E81223031052CF48D819E814F
:101D4000009761F066C02D813E812230310521F17E
:101D50008D819E818330910571F15BC0A5E5B0E076
:101D6000E5E5F0E080818B7F8C93A5E5B0E0E5E5CB
:101D7000F0E08081877F8C934CC0A5E5B0E0E5E57D
:101D8000F0E0808184608C93A5E5B0E0E5E5F0E0CB
:101D90008081877F8C933DC0A5E5B0E0E5E5F0E06C
:101DA00080818B7F8C93A5E5B0E0E5E5F0E0808154
:101DB00088608C932EC0A5E5B0E0E5E5F0E0808179
:101DC00084608C93A5E5B0E0E5E5F0E08081886073
:101DD0008C931FC08A81282F30E03C832B838B811A
:101DE0009C818230910531F02B813C81233031057B
:101DF00049F00FC0A4E5B0E0E4E5F0E080818F7B1E
:101E00008C9307C0A4E5B0E0E4E5F0E08081806455
:101E10008C932A960FB6F894DEBF0FBECDBFCF913C
:101E2000DF910895DF93CF9300D000D000D0CDB7DD
:101E3000DEB78A837C836B8319828B819C810097B8
:101E400041F18A81282F30E03E832D838D819E8150
:101E50008130910581F02D813E812230310591F054
:101E60008D819E810097B9F48B819C819093810034
:101E70008093800010C08B819C819093830080931D
:101E8000820009C08B819C8190938500809384009F
:101E900002C081E08983898126960FB6F894DEBF5F
:101EA0000FBECDBFCF91DF9108951F920F920FB655
:101EB0000F9211242F933F934F935F936F937F93D0
:101EC0008F939F93AF93BF93EF93FF93DF93CF9342
:101ED000CDB7DEB7E0918000F09181000995CF91F8
:101EE000DF91FF91EF91BF91AF919F918F917F9182
:101EF0006F915F914F913F912F910F900FBE0F9077
:101F00001F9018951F920F920FB60F9211242F93C6
:101F10003F934F935F936F937F938F939F93AF9371
:101F2000BF93EF93FF93DF93CF93CDB7DEB7E091ED
:101F30008200F09183000995CF91DF91FF91EF919D
:101F4000BF91AF919F918F917F916F915F914F91D1
:101F50003F912F910F900FBE0F901F9018951F92D9
:101F60000F920FB60F9211242F933F934F935F93CD
:101F70006F937F938F939F93AF93BF93EF93FF9351
:101F8000DF93CF93CDB7DEB7E0918400F091850069
:101F90000995CF91DF91FF91EF91BF91AF919F9103
:101FA0008F917F916F915F914F913F912F910F9002
:101FB0000FBE0F901F901895DF93CF93CDB7DEB76C
:101FC000AFE5B0E0EFE5F0E0808180688C93CF91E1
:101FD000DF910895DF93CF93CDB7DEB7AFE5B0E0E3
:101FE000EFE5F0E080818F778C93CF91DF910895BA
:101FF000DF93CF9300D0CDB7DEB79A8389838981F1
:102000009A81692F40E00E949A0A89819A81692FFA
:1020100041E00E94DA0B0F900F90CF91DF9108956D
:10202000DF93CF9300D00F92CDB7DEB79A83898329
:1020300089819A81692F0E94D80C1B82882311F410
:1020400081E08B838B810F900F900F90CF91DF9168
:102050000895DF93CF9300D0CDB7DEB70E94DF069F
:1020600084E0898383E08A8389819A810E94F80FC2
:1020700082E067E041E00E949A0A0E94DC0F22E5BC
:1020800030E181E0B9010E94120F81E060E00E941E
:102090008C0D81E062E00E94120E80E690E00E94CA
:1020A000D608FFCFDF93CF93CDB7DEB78091860000
:1020B000882399F482E067E041E00E94DA0B0E94F5
:1020C0002A0980E060E00E94FF088CE690E00E9410
:1020D000D60881E08093860015C08091860081300B
:1020E00089F482E067E040E00E94DA0B0E942A094E
:1020F00080E060E00E94FF0880E690E00E94D60841
:1021000010928600CF91DF910895AA1BBB1B51E16D
:1021100007C0AA1FBB1FA617B70710F0A61BB70B57
:10212000881F991F5A95A9F780959095BC01CD01FC
:1021300008952F923F924F925F926F927F928F926B
:102140009F92AF92BF92CF92DF92EF92FF920F9346
:102150001F93CF93DF93CDB7DEB7CA1BDB0B0FB650
:10216000F894DEBF0FBECDBF09942A88398848880D
:102170005F846E847D848C849B84AA84B984C884A3
:10218000DF80EE80FD800C811B81AA81B981CE0F9A
:10219000D11D0FB6F894DEBF0FBECDBFED0108957F
:0421A000F894FFCFE1
:1021A4004D4F544F52204F46462E2E004D4F544F04
:1021B40052204F4E2E2E00000000000000000000B0
:00000001FF
