:100000000C942A000C943F000C943F000C943F0089
:100010000C943F000C943F000C943F000C943F0064
:100020000C943F000C943F000C943F000C943F0054
:100030000C943F000C943F000C943F000C943F0044
:100040000C943F000C943F000C943F000C943F0034
:100050000C943F0011241FBECFE5D8E0DEBFCDBF1A
:1000600011E0A0E6B0E0EEE8FEE202C005900D92DD
:10007000A239B107D9F70E9404110C9445170C94CA
:100080000000EF92FF920F931F937B018C0120E001
:1000900030E040E05FE40E944D0488238CF0C8010A
:1000A000B70120E030E040E05FE40E94B9010E9427
:1000B0000B059B01AC01205030404040504806C029
:1000C000C801B7010E940B059B01AC01B901CA012F
:1000D0001F910F91FF90EF900895A0E0B0E0E3E74B
:1000E000F0E00C940E17DC012B01FA019C91923088
:1000F00008F439C1EB018881823008F433C19430AF
:1001000069F4843009F02FC111969C91119789816F
:10011000981709F428C1A2E7B0E025C1843009F49A
:1001200021C18230A9F4923009F01DC19A01AD01BC
:1001300088E0EA010990AE01E90109929E0181502F
:10014000C1F7E201898111969C918923818308C1BD
:10015000923009F407C112962D903C901397EB0151
:100160008A819B811496AD90BD90CD90DC901797BD
:10017000EC80FD800E811F819101281B390BB90194
:1001800037FF04C066277727621B730B6032710547
:100190000CF061C0121613066CF537014801062EEB
:1001A00004C096948794779467940A94D2F721E0D8
:1001B00030E040E050E004C0220F331F441F551FC1
:1001C0006A95D2F721503040404050402E213F21C7
:1001D00040235123211531054105510521F021E02E
:1001E00030E040E050E079018A01E628F72808294C
:1001F00019293CC0232BD1F1260E371E35014601AB
:10020000062E04C096948794779467940A94D2F744
:1002100021E030E040E050E004C0220F331F441FD3
:10022000551F6A95D2F721503040404050402A2156
:100230003B214C215D21211531054105510521F05E
:1002400021E030E040E050E059016A01A628B728DB
:10025000C828D9280BC0821593052CF01C01AA24AC
:10026000BB24650103C0EE24FF24870111969C91F5
:10027000D20111968C91981709F445C0992339F051
:10028000A80197012A193B094C095D0906C0A6017E
:1002900095012E193F09400B510B57FD08C01182E3
:1002A0003382228224833583468357831DC081E0B5
:1002B00081833382228288279927DC01821B930B5A
:1002C000A40BB50B84839583A683B7830DC0220F3F
:1002D000331F441F551F24833583468357838281F0
:1002E000938101979383828324813581468157814D
:1002F000DA01C9010197A109B1098F5F9F4FAF4F83
:10030000BF4328F30BC0918333822282EA0CFB1C8B
:100310000C1D1D1DE482F5820683178383E0808314
:10032000248135814681578157FF1AC0C901AA2708
:1003300097FDA095BA2F81709070A070B0705695FF
:10034000479537952795822B932BA42BB52B848328
:100350009583A683B7838281938101969383828359
:10036000DF0101C0D201CD01CDB7DEB7E2E10C94CF
:100370002A17A0E2B0E0EFEBF1E00C941A176983C2
:100380007A838B839C832D833E834F835887E9E058
:10039000EE2EF12CEC0EFD1ECE010196B7010E944F
:1003A000FC068E010F5E1F4FCE010596B8010E941C
:1003B000FC068A8991E089278A8BC701B801AE01C2
:1003C000475E5F4F0E946D000E942706A096E6E000
:1003D0000C943617A0E2B0E0E0EFF1E00C941A17AD
:1003E00069837A838B839C832D833E834F835887D5
:1003F000F9E0EF2EF12CEC0EFD1ECE010196B701B7
:100400000E94FC068E010F5E1F4FCE010596B801BB
:100410000E94FC06C701B801AE01475E5F4F0E9413
:100420006D000E942706A096E6E00C943617A0E225
:10043000B0E0EDE1F2E00C940E1769837A838B83D0
:100440009C832D833E834F835887CE010196BE0146
:10045000675F7F4F0E94FC06CE010596BE016F5E6E
:100460007F4F0E94FC069985923088F089898230FE
:10047000C8F0943019F4823051F404C0843029F467
:10048000923081F482E790E0C6C0923049F420E0D7
:100490009A858A89981321E02A87CE010996BBC0E4
:1004A000823049F420E09A858A89981321E02A8BCA
:1004B000CE014196B0C02D843E844F8458886D880B
:1004C0007E888F88988CEE24FF248701AA24BB2481
:1004D000650140E050E060E070E0E0E0F0E0C10184
:1004E00081709070892BE9F0E60CF71C081D191D2E
:1004F0009A01AB012A0D3B1D4C1D5D1D80E090E073
:10050000A0E0B0E0E614F7040805190520F481E046
:1005100090E0A0E0B0E0BA01A901480F591F6A1F9E
:100520007B1FAA0CBB1CCC1CDD1C97FE08C081E005
:1005300090E0A0E0B0E0A82AB92ACA2ADB2A3196C6
:10054000E032F10549F0660C771C881C991C569422
:10055000479437942794C3CFFA85EA892B893C893D
:100560008B859C85280F391F2E5F3F4F17C0CA010E
:1005700081709070892B61F016950795F794E79438
:1005800080E090E0A0E0B0E8E82AF92A0A2B1B2BD3
:1005900076956795579547952F5F3F4F77FDE7CF46
:1005A0000CC0440F551F661F771F17FD4160EE0CEE
:1005B000FF1C001F111F21503040403090E05907B0
:1005C00090E0690790E4790760F32B8F3C8FDB01A3
:1005D000CA018F779070A070B07080349105A1052A
:1005E000B10561F447FD0AC0E114F10401051105EC
:1005F00029F0405C5F4F6F4F7F4F40781A8EFE1797
:1006000011F081E08A8F4D8F5E8F6F8F78A383E02A
:10061000898FCE0149960E942706A096E2E10C94AC
:100620002A17A8E1B0E0E7E1F3E00C94161769831C
:100630007A838B839C832D833E834F835887B9E0D5
:10064000EB2EF12CEC0EFD1ECE010196B7010E949F
:10065000FC068E010F5E1F4FCE010596B8010E9469
:10066000FC062985223008F47EC03989323010F426
:10067000B8017CC08A859A8989278A87243011F03D
:10068000223031F4231709F06EC062E770E06EC0CB
:10069000343039F41D861E861F86188A1C861B86F8
:1006A00004C0323021F484E08987B7015FC02B8514
:1006B0003C858B899C89281B390B3C872B87ED84D3
:1006C000FE840F851889AD88BE88CF88D88CEA143F
:1006D000FB040C051D0540F4EE0CFF1C001F111F50
:1006E000215030403C872B8720E030E040E050E054
:1006F00080E090E0A0E0B0E460E070E0EA14FB0489
:100700000C051D0540F0282B392B4A2B5B2BEA18D2
:10071000FB080C091D09B695A79597958795EE0CD2
:10072000FF1C001F111F6F5F7F4F6F31710531F785
:10073000DA01C9018F779070A070B0708034910594
:10074000A105B10561F427FD0AC0E114F10401051A
:10075000110529F0205C3F4F4F4F5F4F20782D87C8
:100760003E874F87588BBE01675F7F4FCB010E944A
:1007700027066896EAE00C943217A8E1B0E0E3ECB3
:10078000F3E00C941A1769837A838B839C832D83FF
:100790003E834F83588789E0E82EF12CEC0EFD1E36
:1007A000CE010196B7010E94FC068E010F5E1F4F1D
:1007B000CE010596B8010E94FC068985823040F082
:1007C0008989823028F0C701B8010E94740701C0EE
:1007D00081E06896E6E00C943617A8E1B0E0E3EF1C
:1007E000F3E00C941A1769837A838B839C832D839F
:1007F0003E834F83588789E0E82EF12CEC0EFD1ED6
:10080000CE010196B7010E94FC068E010F5E1F4FBC
:10081000CE010596B8010E94FC068985823040F021
:100820008989823028F0C701B8010E94740701C08D
:1008300081E06896E6E00C943617A8E1B0E0E3E2C8
:10084000F4E00C941A1769837A838B839C832D833D
:100850003E834F83588789E0E82EF12CEC0EFD1E75
:10086000CE010196B7010E94FC068E010F5E1F4F5C
:10087000CE010596B8010E94FC068985823040F0C1
:100880008989823028F0C701B8010E94740701C02D
:100890008FEF6896E6E00C943617A8E1B0E0E3E548
:1008A000F4E00C941A1769837A838B839C832D83DD
:1008B0003E834F83588789E0E82EF12CEC0EFD1E15
:1008C000CE010196B7010E94FC068E010F5E1F4FFC
:1008D000CE010596B8010E94FC068985823040F061
:1008E0008989823028F0C701B8010E94740701C0CD
:1008F0008FEF6896E6E00C943617A8E1B0E0E3E8E5
:10090000F4E00C941A1769837A838B839C832D837C
:100910003E834F83588789E0E82EF12CEC0EFD1EB4
:10092000CE010196B7010E94FC068E010F5E1F4F9B
:10093000CE010596B8010E94FC068985823040F000
:100940008989823028F0C701B8010E94740701C06C
:1009500081E06896E6E00C943617A8E0B0E0E3EB9F
:10096000F4E00C9417179B01AC0183E08983DA0152
:10097000C9018827B7FD83959927AA27BB27B82ED9
:10098000211531054105510519F482E089833AC0EA
:100990008823A9F0203080E0380780E0480780E80D
:1009A000580729F460E070E080E09FEC30C0EE244E
:1009B000FF248701E21AF30A040B150B02C0790128
:1009C0008A018EE1C82ED12CDC82CB82ED82FE82A0
:1009D0000F831887C801B7010E94D8050197181620
:1009E000190684F4082E04C0EE0CFF1C001F111F12
:1009F0000A94D2F7ED82FE820F831887C81AD90AAB
:100A0000DC82CB82BA82CE0101960E94270628960C
:100A1000E9E00C943317ACE0B0E0E1E1F5E00C94D0
:100A20001E1769837A838B839C83CE010196BE0156
:100A30006B5F7F4F0E94FC068D81823061F18230B6
:100A400050F1843021F48E81882351F12EC02F8102
:100A5000388537FD20C06E812F3131051CF06623AB
:100A6000F9F023C08EE190E0821B930B29853A8533
:100A70004B855C8504C056954795379527958A9593
:100A8000D2F76623B1F050954095309521953F4FB0
:100A90004F4F5F4F0EC020E030E040E050E009C013
:100AA0002FEF3FEF4FEF5FE704C020E030E040E082
:100AB00050E8B901CA012C96E2E00C943A17A8E07C
:100AC000B0E0E5E6F5E00C9416177B018C016115AA
:100AD00071058105910519F482E0898360C083E086
:100AE00089838EE1C82ED12CDC82CB82ED82FE82FE
:100AF0000F831887C801B7010E94D805FC01319700
:100B0000F7FF3BC0222733272E1B3F0B57016801FD
:100B1000022E04C0D694C794B794A7940A94D2F72F
:100B200040E050E060E070E081E090E0A0E0B0E004
:100B300004C0880F991FAA1FBB1F2A95D2F70197DF
:100B4000A109B1098E219F21A023B1230097A105FE
:100B5000B10521F041E050E060E070E04A295B29F6
:100B60006C297D294D835E836F8378878EE190E0C9
:100B70008E1B9F0B9C838B8312C0309781F00E2EAF
:100B800004C0EE0CFF1C001F111F0A94D2F7ED8267
:100B9000FE820F831887CE1ADF0ADC82CB821A828C
:100BA000CE0101960E9427062896EAE00C9432179F
:100BB000EF92FF920F931F937B018C0180E0E81668
:100BC00080E0F80681E0080780E0180788F48FEFDE
:100BD000E816F1040105110531F028F088E090E0F5
:100BE000A0E0B0E017C080E090E0A0E0B0E012C06C
:100BF00080E0E81680E0F80680E0080781E018074A
:100C000028F088E190E0A0E0B0E004C080E190E04E
:100C1000A0E0B0E020E230E040E050E0281B390BDB
:100C20004A0B5B0B04C016950795F794E7948A95D9
:100C3000D2F7F701E658FF4F8081281B310941099F
:100C40005109C9011F910F91FF90EF900895DF9214
:100C5000EF92FF920F931F93FC01E480F5800681D1
:100C60001781D1808081823048F480E090E0A0E15B
:100C7000B0E0E82AF92A0A2B1B2BA5C0843009F41E
:100C80009FC0823021F4EE24FF24870105C0E114C7
:100C9000F1040105110519F4E0E0F0E096C062816D
:100CA00073819FEF623879070CF05BC022E83FEF59
:100CB000261B370B2A3131052CF020E030E040E0D4
:100CC00050E02AC0B801A701022E04C076956795AE
:100CD000579547950A94D2F781E090E0A0E0B0E004
:100CE00004C0880F991FAA1FBB1F2A95D2F701972E
:100CF000A109B1098E219F21A023B1230097A1054D
:100D0000B10521F081E090E0A0E0B0E09A01AB01F4
:100D1000282B392B4A2B5B2BDA01C9018F77907076
:100D2000A070B07080349105A105B10539F427FF9A
:100D300009C0205C3F4F4F4F5F4F04C0215C3F4FC5
:100D40004F4F5F4FE0E0F0E02030A0E03A07A0E036
:100D50004A07A0E45A0710F0E1E0F0E079018A01C7
:100D600027C06038710564F5FB01E158FF4FD801D9
:100D7000C7018F779070A070B07080349105A10585
:100D8000B10539F4E7FE0DC080E490E0A0E0B0E0EA
:100D900004C08FE390E0A0E0B0E0E80EF91E0A1F67
:100DA0001B1F17FF05C016950795F794E79431961A
:100DB00087E016950795F794E7948A95D1F705C0D3
:100DC000EE24FF248701EFEFF0E06E2F6795662792
:100DD0006795902F9F77D794DD24D7948E2F869593
:100DE000492F462B582F5D29B701CA011F910F913A
:100DF000FF90EF90DF900895FC01DB01408151816D
:100E00002281622F6F7770E0221F2227221F938199
:100E1000892F880F822B282F30E0991F9927991F3F
:100E200011969C93119721153105A9F5411551058E
:100E30006105710511F482E037C082E89FEF1396D7
:100E40009C938E9312979A01AB0167E0220F331F98
:100E5000441F551F6A95D1F783E08C930DC0220F74
:100E6000331F441F551F12968D919C911397019724
:100E700013969C938E931297203080E0380780E081
:100E8000480780E4580758F314962D933D934D93EB
:100E90005C93179708952F3F310579F4411551055B
:100EA0006105710519F484E08C93089564FF03C013
:100EB00081E08C9312C01C9210C02F5730401396C3
:100EC0003C932E93129783E08C9387E0440F551F39
:100ED000661F771F8A95D1F7706414964D935D93C2
:100EE0006D937C93179708951F93DC01FB019C91F0
:100EF000923008F447C08081823008F443C09430B7
:100F000051F411961C91843099F58181682F70E01D
:100F1000611B71093FC0843021F0923031F482307E
:100F2000B9F18181882389F12DC011961C91119707
:100F30008230F1F081811817D9F412962D913C91ED
:100F40001397828193818217930794F028173907AA
:100F5000BCF014968D919D910D90BC91A02D248193
:100F6000358146815781281739074A075B0718F4EE
:100F7000112341F00AC082179307A407B50740F474
:100F8000112319F061E070E005C06FEF7FEF02C040
:100F900060E070E0CB011F910895DF93CF93CDB750
:100FA000DEB72F970FB6F894DEBF0FBECDBF8F8789
:100FB00084E062E041E00E94040E84E061E040E0F1
:100FC0000E94040E83E06F850E94C20D84E060E001
:100FD00041E00E94040E80E090E0A0E8BFE38B8730
:100FE0009C87AD87BE876B857C858D859E8520E03F
:100FF00030E04AEF54E40E941702DC01CB018F83FA
:101000009887A987BA876F81788589859A8520E036
:1010100030E040E85FE30E947D0488232CF481E007
:1010200090E09E838D833FC06F81788589859A8506
:1010300020E03FEF4FE757E40E941D0418164CF5DF
:101040006B857C858D859E8520E030E040E251E413
:101050000E941702DC01CB01BC01CD010E944100BE
:10106000DC01CB019E838D830FC088EC90E09C83D4
:101070008B838B819C810197F1F79C838B838D817E
:101080009E8101979E838D838D819E81009769F754
:1010900014C06F81788589859A850E944100DC01A2
:1010A000CB019E838D838D819E819A8389838981E3
:1010B0009A810197F1F79A83898384E060E040E0A8
:1010C0000E94040E2F960FB6F894DEBF0FBECDBF60
:1010D000CF91DF910895DF93CF93CDB7DEB72F97F0
:1010E0000FB6F894DEBF0FBECDBF8F8784E062E0FD
:1010F00040E00E94040E84E061E040E00E94040EA3
:1011000083E06F850E94C20D84E060E041E00E94B0
:10111000040E80E090E0A0E8BFE38B879C87AD875A
:10112000BE876B857C858D859E8520E030E04AEF0B
:1011300054E40E941702DC01CB018F839887A987B2
:10114000BA876F81788589859A8520E030E040E80C
:101150005FE30E947D0488232CF481E090E09E836D
:101160008D833FC06F81788589859A8520E03FEF28
:101170004FE757E40E941D0418164CF56B857C85DB
:101180008D859E8520E030E040E251E40E94170208
:10119000DC01CB01BC01CD010E944100DC01CB018F
:1011A0009E838D830FC088EC90E09C838B838B8122
:1011B0009C810197F1F79C838B838D819E810197A0
:1011C0009E838D838D819E81009769F714C06F8106
:1011D000788589859A850E944100DC01CB019E8338
:1011E0008D838D819E819A83898389819A810197DC
:1011F000F1F79A83898384E060E040E00E94040E66
:101200002F960FB6F894DEBF0FBECDBFCF91DF9102
:101210000895DF93CF93CDB7DEB7E8970FB6F89474
:10122000DEBF0FBECDBF83E06FEF0E94820C84E073
:1012300060E041E00E94C40C84E061E041E00E9473
:10124000C40C84E062E041E00E94C40C80E090E0C5
:10125000A0E8BFE38DAB9EABAFABB8AF6DA97EA9E5
:101260008FA998AD20E030E04AEF54E40E941702C5
:10127000DC01CB0189AB9AABABABBCAB69A97AA95A
:101280008BA99CA920E030E040E85FE30E947D0448
:1012900088232CF481E090E098AB8FA73FC069A928
:1012A0007AA98BA99CA920E03FEF4FE757E40E9461
:1012B0001D0418164CF56DA97EA98FA998AD20E0E4
:1012C00030E040E251E40E941702DC01CB01BC0196
:1012D000CD010E944100DC01CB0198AB8FA70FC06C
:1012E00088EC90E09EA78DA78DA59EA50197F1F7AC
:1012F0009EA78DA78FA598A9019798AB8FA78FA5BB
:1013000098A9009769F714C069A97AA98BA99CA923
:101310000E944100DC01CB0198AB8FA78FA598A953
:101320009CA78BA78BA59CA50197F1F79CA78BA7E2
:1013300088E30E946B0880E090E0A0E8BFE38FA301
:1013400098A7A9A7BAA76FA178A589A59AA520E013
:1013500030E04AEF54E40E941702DC01CB018BA37A
:101360009CA3ADA3BEA36BA17CA18DA19EA120E0F7
:1013700030E040E85FE30E947D0488232CF481E0A4
:1013800090E09AA389A33FC06BA17CA18DA19EA1EF
:1013900020E03FEF4FE757E40E941D0418164CF57C
:1013A0006FA178A589A59AA520E030E040E251E43C
:1013B0000E941702DC01CB01BC01CD010E9441005B
:1013C000DC01CB019AA389A30FC088EC90E098A31D
:1013D0008F8F8F8D98A10197F1F798A38F8F89A197
:1013E0009AA101979AA389A389A19AA1009769F765
:1013F00014C06BA17CA18DA19EA10E944100DC01C3
:10140000CB019AA389A389A19AA19E8F8D8F8D8DDF
:101410009E8D0197F1F79E8F8D8F8CE00E946B0857
:1014200080E090E0A0E8BFE3898F9A8FAB8FBC8FFC
:10143000698D7A8D8B8D9C8D20E030E04AEF54E4ED
:101440000E941702DC01CB018D8B9E8BAF8BB88F76
:101450006D897E898F89988D20E030E040E85FE3D8
:101460000E947D0488232CF481E090E09C8B8B8B80
:101470003FC06D897E898F89988D20E03FEF4FE7CF
:1014800057E40E941D0418164CF5698D7A8D8B8DDA
:101490009C8D20E030E040E251E40E941702DC0124
:1014A000CB01BC01CD010E944100DC01CB019C8B32
:1014B0008B8B0FC088EC90E09A8B898B89899A89F5
:1014C0000197F1F79A8B898B8B899C8901979C8B6B
:1014D0008B8B8B899C89009769F714C06D897E89F5
:1014E0008F89988D0E944100DC01CB019C8B8B8BF6
:1014F0008B899C89988B8F878F8598890197F1F7C5
:10150000988B8F8781E00E946B0880E090E0A0E8D4
:10151000BFE38B879C87AD87BE876B857C858D8578
:101520009E8520E030E04AEF54E40E941702DC017F
:10153000CB018F839887A987BA876F817885898542
:101540009A8520E030E040E85FE30E947D04882334
:101550002CF481E090E09E838D833FC06F8178857D
:1015600089859A8520E03FEF4FE757E40E941D04EC
:1015700018164CF56B857C858D859E8520E030E0C6
:1015800040E251E40E941702DC01CB01BC01CD0115
:101590000E944100DC01CB019E838D830FC088EC4B
:1015A00090E09C838B838B819C810197F1F79C83D6
:1015B0008B838D819E8101979E838D838D819E81FA
:1015C000009769F714C06F81788589859A850E9494
:1015D0004100DC01CB019E838D838D819E819A83A6
:1015E000898389819A810197F1F79A838983E896A3
:1015F0000FB6F894DEBF0FBECDBFCF91DF91089537
:10160000DF93CF9300D00F92CDB7DEB79B838A8351
:1016100019820EC08981282F30E08A819B81FC01CC
:10162000E20FF31F80810E94CD0789818F5F89833C
:101630008981282F30E08A819B81FC01E20FF31F12
:101640008081882339F70F900F900F90CF91DF9111
:101650000895DF93CF9300D000D00F92CDB7DEB7BF
:101660008A836B8319828B81282F30E03D832C8302
:101670008C819D81009731F02C813D812130310595
:1016800021F006C08A81898303C08A81805C8983B6
:10169000898180580E946B080F900F900F900F90D7
:1016A0000F90CF91DF910895DF93CF93CDB7DEB741
:1016B00081E00E946B08CF91DF910895DF93CF9373
:1016C000CDB7DEB727970FB6F894DEBF0FBECDBFFC
:1016D0008B836C834D833F832E838B81882F90E097
:1016E000880F991F880F991F880F991F8A838A81F5
:1016F000805C0E946B0819820EC08981282F30E01F
:101700008E819F81FC01E20FF31F80810E94CD0733
:1017100089818F5F89838981883078F38C816D819D
:101720000E94290B8B810E94CD0727960FB6F89453
:10173000DEBF0FBECDBFCF91DF9108950F931F93F2
:10174000DF93CF93CDB7DEB7C757D0400FB6F8942D
:10175000DEBF0FBECDBFFE01EA58FF4F91838083ED
:10176000188A84E6FE017296DF01982F1D929A95E1
:10177000E9F7FE01EA58FF4F808191812AE030E0CD
:10178000B9010E94FA16898B8E010A581F4FFE017B
:10179000EA58FF4F808191812AE030E0B9010E9430
:1017A000FA16CB01D80111969C938E938889282F25
:1017B00030E08989482F405DCE014296FC01E20F5E
:1017C000F31F408388898F5F888BFE01EA58FF4FA3
:1017D00080819181009769F688898F8783C08F8582
:1017E000882F90E09C0121503040CE014296FC01B0
:1017F000E20FF31F80810E94CD0780E090E0A0E817
:10180000BFE38B879C87AD87BE876B857C858D8585
:101810009E8520E030E04AEF54E40E941702DC018C
:10182000CB018F839887A987BA876F81788589854F
:101830009A8520E030E040E85FE30E947D04882341
:101840002CF481E090E09E838D833FC06F8178858A
:1018500089859A8520E03FEF4FE757E40E941D04F9
:1018600018164CF56B857C858D859E8520E030E0D3
:1018700040E251E40E941702DC01CB01BC01CD0122
:101880000E944100DC01CB019E838D830FC088EC58
:1018900090E09C838B838B819C810197F1F79C83E3
:1018A0008B838D819E8101979E838D838D819E8107
:1018B000009769F714C06F81788589859A850E94A1
:1018C0004100DC01CB019E838D838D819E819A83B3
:1018D000898389819A810197F1F79A8389838F851A
:1018E00081508F878F85882309F079CFC958DF4FC2
:1018F0000FB6F894DEBF0FBECDBFCF91DF911F9121
:101900000F910895DF93CF9300D000D0CDB7DEB70D
:1019100089836A838981282F30E03C832B838B81E4
:101920009C8182309105D9F02B813C812330310597
:1019300034F48B819C818130910561F01EC02B8134
:101940003C812330310581F08B819C81843091056D
:1019500081F013C0EAE3F0E08A8180830EC0E7E300
:10196000F0E08A81808309C0E4E3F0E08A8180832B
:1019700004C0E1E3F0E08A8180830F900F900F9024
:101980000F90CF91DF910895DF93CF93CDB7DEB75E
:1019900027970FB6F894DEBF0FBECDBF89836A8349
:1019A0004B838B81813009F070C08981282F30E012
:1019B0003F832E838E819F818230910551F12E814C
:1019C0003F812330310534F48E819F818130910530
:1019D00061F0CFC02E813F812330310571F18E81BE
:1019E0009F8184309105E9F1C4C0AAE3B0E0EAE345
:1019F000F0E08081482F8A81282F30E081E090E05C
:101A0000022E02C0880F991F0A94E2F7842B8C9350
:101A1000B0C0A7E3B0E0E7E3F0E08081482F8A811F
:101A2000282F30E081E090E0022E02C0880F991F3D
:101A30000A94E2F7842B8C939CC0A4E3B0E0E4E327
:101A4000F0E08081482F8A81282F30E081E090E00B
:101A5000022E02C0880F991F0A94E2F7842B8C9300
:101A600088C0A1E3B0E0E1E3F0E08081482F8A8103
:101A7000282F30E081E090E0022E02C0880F991FED
:101A80000A94E2F7842B8C9374C08981282F30E06C
:101A90003D832C838C819D818230910561F12C8165
:101AA0003D812330310534F48C819D818130910555
:101AB00069F05FC02C813D812330310589F18C8133
:101AC0009D818430910509F440C053C0AAE3B0E081
:101AD000EAE3F0E08081482F8A81282F30E081E01E
:101AE00090E0022E02C0880F991F0A94E2F78095B9
:101AF00084238C933EC0A7E3B0E0E7E3F0E080816D
:101B0000482F8A81282F30E081E090E0022E02C029
:101B1000880F991F0A94E2F7809584238C9329C03B
:101B2000A4E3B0E0E4E3F0E08081482F8A81282F2D
:101B300030E081E090E0022E02C0880F991F0A94E5
:101B4000E2F7809584238C9314C0A1E3B0E0E1E335
:101B5000F0E08081482F8A81282F30E081E090E0FA
:101B6000022E02C0880F991F0A94E2F78095842301
:101B70008C9327960FB6F894DEBF0FBECDBFCF91E2
:101B8000DF910895DF93CF9300D000D0CDB7DEB7BB
:101B900089836A838981282F30E03C832B838B8162
:101BA0009C8182309105D9F02B813C812330310515
:101BB00034F48B819C818130910561F01EC02B81B2
:101BC0003C812330310581F08B819C8184309105EB
:101BD00081F013C0EBE3F0E08A8180830EC0E8E37C
:101BE000F0E08A81808309C0E5E3F0E08A818083A8
:101BF00004C0E2E3F0E08A8180830F900F900F90A1
:101C00000F90CF91DF910895DF93CF93CDB7DEB7DB
:101C100027970FB6F894DEBF0FBECDBF89836A83C6
:101C20004B838B81813009F070C08981282F30E08F
:101C30003F832E838E819F818230910551F12E81C9
:101C40003F812330310534F48E819F8181309105AD
:101C500061F0CFC02E813F812330310571F18E813B
:101C60009F8184309105E9F1C4C0ABE3B0E0EBE3C0
:101C7000F0E08081482F8A81282F30E081E090E0D9
:101C8000022E02C0880F991F0A94E2F7842B8C93CE
:101C9000B0C0A8E3B0E0E8E3F0E08081482F8A819B
:101CA000282F30E081E090E0022E02C0880F991FBB
:101CB0000A94E2F7842B8C939CC0A5E3B0E0E5E3A3
:101CC000F0E08081482F8A81282F30E081E090E089
:101CD000022E02C0880F991F0A94E2F7842B8C937E
:101CE00088C0A2E3B0E0E2E3F0E08081482F8A817F
:101CF000282F30E081E090E0022E02C0880F991F6B
:101D00000A94E2F7842B8C9374C08981282F30E0E9
:101D10003D832C838C819D818230910561F12C81E2
:101D20003D812330310534F48C819D8181309105D2
:101D300069F05FC02C813D812330310589F18C81B0
:101D40009D818430910509F440C053C0ABE3B0E0FD
:101D5000EBE3F0E08081482F8A81282F30E081E09A
:101D600090E0022E02C0880F991F0A94E2F7809536
:101D700084238C933EC0A8E3B0E0E8E3F0E08081E8
:101D8000482F8A81282F30E081E090E0022E02C0A7
:101D9000880F991F0A94E2F7809584238C9329C0B9
:101DA000A5E3B0E0E5E3F0E08081482F8A81282FA9
:101DB00030E081E090E0022E02C0880F991F0A9463
:101DC000E2F7809584238C9314C0A2E3B0E0E2E3B1
:101DD000F0E08081482F8A81282F30E081E090E078
:101DE000022E02C0880F991F0A94E2F7809584237F
:101DF0008C9327960FB6F894DEBF0FBECDBFCF9160
:101E0000DF910895DF93CF9300D000D00F92CDB72C
:101E1000DEB78A836B8319828A81282F30E03D8365
:101E20002C834C815D814230510541F18C819D8133
:101E30008330910534F42C813D812130310561F0EE
:101E400052C04C815D814330510551F18C819D819F
:101E500084309105B9F147C0E9E3F0E08081282F93
:101E600030E08B81882F90E0A90102C055954795FD
:101E70008A95E2F7CA018170898335C0E6E3F0E014
:101E80008081282F30E08B81882F90E0A90102C04B
:101E9000559547958A95E2F7CA018170898323C0D9
:101EA000E3E3F0E08081282F30E08B81882F90E001
:101EB000A90102C0559547958A95E2F7CA0181703C
:101EC000898311C0E0E3F0E08081282F30E08B812E
:101ED000882F90E0A90102C0559547958A95E2F7B1
:101EE000CA018170898389810F900F900F900F90A4
:101EF0000F90CF91DF910895DF93CF9300D0CDB7AE
:101F0000DEB789836A8389816A810E94020F8823F0
:101F100031F489816A8141E00E94040E0BC08981FD
:101F20006A810E94020F813029F489816A8140E030
:101F30000E94040E0F900F90CF91DF910895DF93D0
:101F4000CF9300D0CDB7DEB78A83198207C08A81CC
:101F500069810E947C0F89818F5F898389818830A4
:101F6000B0F30F900F90CF91DF910895DF93CF934F
:101F7000CDB7DEB781E063E040E00E94C40C81E0B1
:101F800062E040E00E94C40C81E061E040E00E9419
:101F9000C40C81E060E040E00E94C40C81E063E09A
:101FA00041E00E94040E81E062E041E00E94040EE4
:101FB00081E061E041E00E94040E81E060E041E0E8
:101FC0000E94040E81E064E041E00E94C40C81E0C4
:101FD00065E041E00E94C40C81E066E041E00E94BF
:101FE000C40C81E067E041E00E94C40C81E064E041
:101FF00041E00E94040E81E065E041E00E94040E91
:1020000081E066E041E00E94040E81E067E041E08B
:102010000E94040ECF91DF910895DF93CF93CDB747
:10202000DEB763970FB6F894DEBF0FBECDBF8FEF5C
:102030008B8B1F861A8ADAC08A89882F90E0FC0170
:10204000E657FE4F908181E0692F40E00E94040E28
:10205000198AB6C08989882F90E0FC01E257FE4FAB
:10206000908181E0692F0E94020F888B88898823E4
:1020700009F0A3C080E090E0A8E4B2E48B879C87DD
:10208000AD87BE876B857C858D859E8520E030E0A1
:102090004AEF54E40E941702DC01CB018F8398873A
:1020A000A987BA876F81788589859A8520E030E095
:1020B00040E85FE30E947D0488232CF481E090E0F7
:1020C0009E838D833FC06F81788589859A8520E0C6
:1020D0003FEF4FE757E40E941D0418164CF56B853F
:1020E0007C858D859E8520E030E040E251E40E94B1
:1020F0001702DC01CB01BC01CD010E944100DC01D3
:10210000CB019E838D830FC088EC90E09C838B83F2
:102110008B819C810197F1F79C838B838D819E81BC
:1021200001979E838D838D819E81009769F714C0EE
:102130006F81788589859A850E944100DC01CB01F9
:102140009E838D838D819E819A83898389819A81E3
:102150000197F1F79A8389838989882F90E0FC01A0
:10216000E257FE4F908181E0692F0E94020F888B19
:102170000CC08989882F90E0FC01E257FE4F9081C6
:1021800081E0692F0E94020F888B8889882389F358
:102190008A89482F50E08989282F30E0CA01880FAA
:1021A000991F880F991F820F931FFC01E658FE4F5D
:1021B00080818B8B81E08F8707C089898F5F898BB6
:1021C0008989843008F446CF8A89882F90E0FC0101
:1021D000E657FE4F908181E0692F41E00E94040E96
:1021E0008F85813039F08A898F5F8A8B8A89843024
:1021F00008F422CF8B8963960FB6F894DEBF0FBE2A
:10220000CDBFCF91DF9108950F931F93DF93CF93AD
:10221000CDB7DEB7C455D0400FB6F894DEBF0FBEC1
:10222000CDBF0E94B60F0E9409090E94540B80E0A6
:1022300060E00E94290B80E090E0A0E8BFE3898F76
:102240009A8FAB8FBC8F698D7A8D8B8D9C8D20E0A2
:1022500030E04AEF54E40E941702DC01CB018D8B81
:102260009E8BAF8BB88F6D897E898F89988D20E08A
:1022700030E040E85FE30E947D0488232CF481E095
:1022800090E09C8B8B8B3FC06D897E898F89988D68
:1022900020E03FEF4FE757E40E941D0418164CF56D
:1022A000698D7A8D8B8D9C8D20E030E040E251E489
:1022B0000E941702DC01CB01BC01CD010E9441004C
:1022C000DC01CB019C8B8B8B0FC088EC90E09A8B50
:1022D000898B89899A890197F1F79A8B898B8B89E8
:1022E0009C8901979C8B8B8B8B899C89009769F7C4
:1022F00014C06D897E898F89988D0E944100DC0110
:10230000CB019C8B8B8B8B899C89988B8F878F853E
:1023100098890197F1F7988B8F87FE01EE5BFF4F4D
:1023200080E090E0AFE7B3E480839183A283B3833E
:10233000FE01FE9680E090E0AFE7B3E480839183F6
:10234000A283B38380E090E0A0E0B0E08AAF9BAFCF
:10235000ACAFBDAF80E090E0A0E0B0E08EAB9FAB53
:10236000A8AFB9AF1DAA1CAA80E090E0A0E2B1E43A
:102370008FA798ABA9ABBAAB80E090E0A0E2B1E444
:102380008BA79CA7ADA7BEA780E090E0A0E0B0E03F
:102390008FA398A7A9A7BAA714C00E940D108E01F9
:1023A0000E5B1F4F882F90E0A0E0B0E0BC01CD0194
:1023B0000E945F05DC01CB01F80180839183A28339
:1023C000B383FE01EE5BFF4F608171818281938157
:1023D00020E030E04FE753E40E94BD038823E9F298
:1023E000F7C0FE01EE5BFF4F6081718182819381B6
:1023F00020E030E048E352E40E94BD03882309F066
:102400003EC080E690E00E94000B81E08DAB8DEC39
:102410009CECACECBDE38FA798ABA9ABBAABFE01CB
:10242000EE5BFF4F80E090E0AFE7B3E48083918301
:10243000A283B38314C00E940D108E010E5B1F4F48
:10244000882F90E0A0E0B0E0BC01CD010E945F05C4
:10245000DC01CB01F80180839183A283B383FE0169
:10246000EE5BFF4F608171818281938120E030E0DB
:102470004FE753E40E94BD038823E9F2A9C0FE019F
:10248000EE5BFF4F60817181828193810E944100E8
:10249000DC01CB010E949E0B8DA98823D9F18E010E
:1024A0000E5B1F4FFE01EE5BFF4F608171818281E9
:1024B00093812FA538A949A95AA90E941702DC01C6
:1024C000CB01F80180839183A283B383FE01EE5B8D
:1024D000FF4F6AAD7BAD8CAD9DAD208131814281D6
:1024E00053810E94EA01DC01CB018AAF9BAFACAF04
:1024F000BDAF6FA578A989A99AA92DEC3CEC4CEC4D
:102500005DE30E941702DC01CB018FA798ABA9AB5A
:10251000BAAB23C06AAD7BAD8CAD9DAD2FA538A9FC
:1025200049A95AA90E941702DC01CB018AAF9BAFCF
:10253000ACAFBDAFFE01EE5BFF4F6AAD7BAD8CADC6
:102540009DAD20813181428153810E94EA01DC01ED
:10255000CB018AAF9BAFACAFBDAFFE01EE5BFF4FCF
:1025600080E090E0AFE7B3E480839183A283B383FC
:1025700014C00E940D108E010E5B1F4F882F90E03B
:10258000A0E0B0E0BC01CD010E945F05DC01CB0101
:10259000F80180839183A283B383FE01EE5BFF4F3A
:1025A000608171818281938120E030E04FE753E4C4
:1025B0000E94BD038823E9F2FE01EE5BFF4F6081BC
:1025C0007181828193810E944100DC01CB018BAB40
:1025D00065961FAE6597FE01EE5BFF4F60817181CE
:1025E0008281938120E030E04CE252E40E94ED03CE
:1025F000882321F0F1E06596FFAF659781E065964D
:102600002FAD65978227882309F086C064961FAE98
:102610006497FE01EE5BFF4F60817181828193813F
:1026200020E030E044E352E40E94ED03882321F0EF
:1026300031E064963FAF649781E064969FAD649704
:102640008927882309F068C063961FAE6397FE014F
:10265000EE5BFF4F608171818281938120E030E0E9
:1026600048E252E40E94ED03882321F0E1E0639602
:10267000EFAF639781E06396FFAD63978F27882361
:1026800009F04AC062961FAE6297FE01EE5BFF4FF3
:10269000608171818281938120E030E044E752E4DF
:1026A0000E94ED03882321F021E062962FAF62970C
:1026B00081E062963FAD62978327882369F5619632
:1026C0001FAE6197FE01EE5BFF4F608171818281D9
:1026D000938120E030E04CE352E40E94ED03882334
:1026E00021F081E061968FAF619781E061969FADA7
:1026F00061978927882381F4FE01EE5BFF4F60819B
:1027000071818281938120E030E04FE753E40E94A1
:10271000ED03882309F065CE8BA9E82FF0E06096E1
:10272000FFAFEEAF609760962EAD3FAD60972B3256
:102730003105F1F060968EAD9FAD60978C329105BA
:1027400044F46096EEADFFAD6097EA32F105D1F04A
:1027500023C060962EAD3FAD60972D32310569F0F4
:1027600060968EAD9FAD60978F32910581F014C059
:1027700082E690E00E94000B28C084E690E00E9470
:10278000000B23C086E690E00E94000B1EC088E686
:1027900090E00E94000B19C08AE690E00E94000BB6
:1027A00014C00E940D108E01025C1F4F882F90E014
:1027B000A0E0B0E0BC01CD010E945F05DC01CB01CF
:1027C000F80180839183A283B383FE01FE9660812A
:1027D00071818281938120E030E04FE753E40E94D1
:1027E000BD038823F1F2E1C0FE01FE966081718194
:1027F0008281938120E030E048E352E40E94BD03EF
:102800008823E1F580E690E00E94000B81E08CAB2C
:102810008DEC9CECACECBDE38BA79CA7ADA7BEA751
:10282000FE01FE9680E090E0AFE7B3E48083918301
:10283000A283B38314C00E940D108E01025C1F4F4F
:10284000882F90E0A0E0B0E0BC01CD010E945F05C0
:10285000DC01CB01F80180839183A283B383FE0165
:10286000FE96608171818281938120E030E04FE7A4
:1028700053E40E94BD038823F1F297C0FE01FE9647
:1028800060817181828193810E944100DC01CB01D2
:102890000E949E0B8CA98823C9F18E01025C1F4FF8
:1028A000FE01FE9660817181828193812BA53CA5FA
:1028B0004DA55EA50E941702DC01CB01F8018083C3
:1028C0009183A283B383FE01FE966EA97FA988AD92
:1028D00099AD20813181428153810E94EA01DC015E
:1028E000CB018EAB9FABA8AFB9AF6BA57CA58DA577
:1028F0009EA52DEC3CEC4CEC5DE30E941702DC0144
:10290000CB018BA79CA7ADA7BEA722C06EA97FA9AC
:1029100088AD99AD2BA53CA54DA55EA50E941702DB
:10292000DC01CB018EAB9FABA8AFB9AFFE01FE9629
:102930006EA97FA988AD99AD2081318142815381F3
:102940000E94EA01DC01CB018EAB9FABA8AFB9AF0F
:10295000FE01FE9680E090E0AFE7B3E480839183D0
:10296000A283B38314C00E940D108E01025C1F4F1E
:10297000882F90E0A0E0B0E0BC01CD010E945F058F
:10298000DC01CB01F80180839183A283B383FE0134
:10299000FE96608171818281938120E030E04FE773
:1029A00053E40E94BD038823F1F22E961FAE2E97AA
:1029B000FE01FE96608171818281938120E030E08A
:1029C0004CE252E40E94ED03882321F0F1E02E96C0
:1029D000FFAF2E9781E02E962FAD2E97822788236A
:1029E00009F081C02D961FAE2D97FE01FE966081E5
:1029F00071818281938120E030E044E352E40E94BF
:102A0000ED03882321F031E02D963FAF2D9781E033
:102A10002D969FAD2D978927882309F064C02C96A9
:102A20001FAE2C97FE01FE96608171818281938199
:102A300020E030E048E252E40E94ED03882321F0D8
:102A4000E1E02C96EFAF2C9781E02C96FFAD2C9710
:102A50008F27882309F047C02B961FAE2B97FE01C6
:102A6000FE96608171818281938120E030E044E7AD
:102A700052E40E94ED03882321F021E02B962FAF32
:102A80002B9781E02B963FAD2B978327882359F511
:102A90002A961FAE2A97FE01FE966081718182817F
:102AA000938120E030E04CE352E40E94ED03882360
:102AB00021F081E02A968FAF2A9781E02A969FAD78
:102AC0002A978927882379F4FE01FE966081718117
:102AD0008281938120E030E04FE753E40E94ED03D0
:102AE000882309F081CE8BA9E82FF0E02996FFAF6B
:102AF000EEAF299729962EAD3FAD29972B323105A0
:102B0000F1F029968EAD9FAD29978C32910544F452
:102B10002996EEADFFAD2997EA32F10591F153C048
:102B200029962EAD3FAD29972D323105C9F0299652
:102B30008EAD9FAD29978F329105A1F144C06AAD4A
:102B40007BAD8CAD9DAD2EA93FA948AD59AD0E947E
:102B5000EA01DC01CB018FA398A7A9A7BAA737C0C8
:102B60006AAD7BAD8CAD9DAD2EA93FA948AD59ADE9
:102B70000E94B901DC01CB018FA398A7A9A7BAA72E
:102B800026C06AAD7BAD8CAD9DAD2EA93FA948ADE9
:102B900059AD0E941702DC01CB018FA398A7A9A70A
:102BA000BAA715C06AAD7BAD8CAD9DAD2EA93FA96E
:102BB00048AD59AD0E941103DC01CB018FA398A74A
:102BC000A9A7BAA704C08AE690E00E94000B80E79C
:102BD00090E00E94000B80E061E00E94290B80E001
:102BE00090E0A0E8BFE38B879C87AD87BE876B85AD
:102BF0007C858D859E8520E030E04AEF54E40E947C
:102C00001702DC01CB018F839887A987BA876F8170
:102C1000788589859A8520E030E040E85FE30E946E
:102C20007D0488232CF481E090E09E838D833FC057
:102C30006F81788589859A8520E03FEF4FE757E4DB
:102C40000E941D0418164CF56B857C858D859E852C
:102C500020E030E040E251E40E941702DC01CB01A9
:102C6000BC01CD010E944100DC01CB019E838D831C
:102C70000FC088EC90E09C838B838B819C810197B3
:102C8000F1F79C838B838D819E8101979E838D8339
:102C90008D819E81009769F714C06F817885898541
:102CA0009A850E944100DC01CB019E838D838D813A
:102CB0009E819A83898389819A810197F1F79A830A
:102CC00089838FA198A5A9A5BAA58BA39CA3ADA321
:102CD000BEA31AA26BA17CA18DA19EA10E9441005E
:102CE000DC01CB018E8F9F8FA8A3B9A38E8D9F8D02
:102CF0000E949E0B6E8D7F8D88A199A10E945F0519
:102D00009B01AC016BA17CA18DA19EA10E94B90188
:102D1000DC01CB018BA39CA3ADA3BEA36BA17CA1C3
:102D20008DA19EA120E030E040E050E00E941D0413
:102D300018160CF07CCA80E690E00E94000B3AC0A6
:102D40006BA17CA18DA19EA120E030E040E251E486
:102D50000E941702DC01CB018BA39CA3ADA3BEA3F1
:102D60006BA17CA18DA19EA10E944100DC01CB0141
:102D70008D8F8D8D882F90E0AA2797FDA095BA2F73
:102D8000BC01CD010E94AD049B01AC016BA17CA1F3
:102D90008DA19EA10E94B901DC01CB018BA39CA354
:102DA000ADA3BEA38D8D882F90E00E949E0B8AA1BB
:102DB0008F5F8AA327961FAE27976BA17CA18DA159
:102DC0009EA120E030E040E050E00E941D04181673
:102DD00024F491E027969FAF279781E02796EFADE7
:102DE00027978E27882309F022CA8AA1843008F405
:102DF000A7CF1DCAAA1BBB1B51E107C0AA1FBB1F3F
:102E0000A617B70710F0A61BB70B881F991F5A9576
:102E1000A9F780959095BC01CD0108952F923F921E
:102E20004F925F926F927F928F929F92AF92BF92DA
:102E3000CF92DF92EF92FF920F931F93CF93DF9386
:102E4000CDB7DEB7CA1BDB0B0FB6F894DEBF0FBEE3
:102E5000CDBF09942A88398848885F846E847D8430
:102E60008C849B84AA84B984C884DF80EE80FD8032
:102E70000C811B81AA81B981CE0FD11D0FB6F894A8
:0E2E8000DEBF0FBECDBFED010895F894FFCF69
:102E8E002E002B002D002A002F004552524F5200CB
:102E9E003D000000000000000000000102020303DC
:102EAE0003030404040404040404050505050505D0
:102EBE0005050505050505050505060606060606AE
:102ECE000606060606060606060606060606060694
:102EDE00060606060606060606060707070707077E
:102EEE000707070707070707070707070707070764
:102EFE000707070707070707070707070707070754
:102F0E000707070707070707070707070707070743
:102F1E00070707070707070707070808080808082D
:102F2E000808080808080808080808080808080813
:102F3E000808080808080808080808080808080803
:102F4E0008080808080808080808080808080808F3
:102F5E0008080808080808080808080808080808E3
:102F6E0008080808080808080808080808080808D3
:102F7E0008080808080808080808080808080808C3
:102F8E0008080808080808080808080808080808B3
:102F9E00080808080808080808080102032B040599
:102FAE00062D0708092A002E3D2F040506070302E9
:022FBE00010010
:00000001FF
