:100000000C942A000C943F000C943F000C943F0089
:100010000C943F000C943F000C943F000C943F0064
:100020000C943F000C943F000C943F000C943F0054
:100030000C943F000C943F000C943F000C943F0044
:100040000C943F000C943F000C943F000C943F0034
:100050000C943F0011241FBECFE5D8E0DEBFCDBF1A
:1000600010E0A0E6B0E0E8EDF8E002C005900D92E7
:10007000AA36B107D9F70E9444040C946A040C9480
:100080000000DF93CF9300D000D0CDB7DEB78983D7
:100090006A838981282F30E03C832B838B819C816C
:1000A00082309105D9F02B813C812330310534F425
:1000B0008B819C818130910561F01EC02B813C8138
:1000C0002330310581F08B819C818430910581F052
:1000D00013C0EAE3F0E08A8180830EC0E7E3F0E03A
:1000E0008A81808309C0E4E3F0E08A81808304C0D0
:1000F000E1E3F0E08A8180830F900F900F900F90E2
:10010000CF91DF910895DF93CF93CDB7DEB72797D7
:100110000FB6F894DEBF0FBECDBF89836A834B83D1
:100120008B81813009F070C08981282F30E03F83B6
:100130002E838E819F818230910551F12E813F81E6
:100140002330310534F48E819F818130910561F037
:10015000CFC02E813F812330310571F18E819F8187
:1001600084309105E9F1C4C0AAE3B0E0EAE3F0E02D
:100170008081482F8A81282F30E081E090E0022E94
:1001800002C0880F991F0A94E2F7842B8C93B0C0A9
:10019000A7E3B0E0E7E3F0E08081482F8A81282FD1
:1001A00030E081E090E0022E02C0880F991F0A948F
:1001B000E2F7842B8C939CC0A4E3B0E0E4E3F0E08E
:1001C0008081482F8A81282F30E081E090E0022E44
:1001D00002C0880F991F0A94E2F7842B8C9388C081
:1001E000A1E3B0E0E1E3F0E08081482F8A81282F8D
:1001F00030E081E090E0022E02C0880F991F0A943F
:10020000E2F7842B8C9374C08981282F30E03D83E2
:100210002C838C819D818230910561F12C813D81FF
:100220002330310534F48C819D818130910569F052
:100230005FC02C813D812330310589F18C819D8106
:100240008430910509F440C053C0AAE3B0E0EAE36A
:10025000F0E08081482F8A81282F30E081E090E013
:10026000022E02C0880F991F0A94E2F7809584231A
:100270008C933EC0A7E3B0E0E7E3F0E08081482F35
:100280008A81282F30E081E090E0022E02C0880FA2
:10029000991F0A94E2F7809584238C9329C0A4E3E4
:1002A000B0E0E4E3F0E08081482F8A81282F30E03D
:1002B00081E090E0022E02C0880F991F0A94E2F7B5
:1002C000809584238C9314C0A1E3B0E0E1E3F0E0D7
:1002D0008081482F8A81282F30E081E090E0022E33
:1002E00002C0880F991F0A94E2F7809584238C93AB
:1002F00027960FB6F894DEBF0FBECDBFCF91DF912A
:100300000895DF93CF9300D000D0CDB7DEB78983B7
:100310006A838981282F30E03C832B838B819C81E9
:1003200082309105D9F02B813C812330310534F4A2
:100330008B819C818130910561F01EC02B813C81B5
:100340002330310581F08B819C818430910581F0CF
:1003500013C0EBE3F0E08A8180830EC0E8E3F0E0B5
:100360008A81808309C0E5E3F0E08A81808304C04C
:10037000E2E3F0E08A8180830F900F900F900F905E
:10038000CF91DF910895DF93CF93CDB7DEB7279755
:100390000FB6F894DEBF0FBECDBF89836A834B834F
:1003A0008B81813009F070C08981282F30E03F8334
:1003B0002E838E819F818230910551F12E813F8164
:1003C0002330310534F48E819F818130910561F0B5
:1003D000CFC02E813F812330310571F18E819F8105
:1003E00084309105E9F1C4C0ABE3B0E0EBE3F0E0A9
:1003F0008081482F8A81282F30E081E090E0022E12
:1004000002C0880F991F0A94E2F7842B8C93B0C026
:10041000A8E3B0E0E8E3F0E08081482F8A81282F4C
:1004200030E081E090E0022E02C0880F991F0A940C
:10043000E2F7842B8C939CC0A5E3B0E0E5E3F0E009
:100440008081482F8A81282F30E081E090E0022EC1
:1004500002C0880F991F0A94E2F7842B8C9388C0FE
:10046000A2E3B0E0E2E3F0E08081482F8A81282F08
:1004700030E081E090E0022E02C0880F991F0A94BC
:10048000E2F7842B8C9374C08981282F30E03D8360
:100490002C838C819D818230910561F12C813D817D
:1004A0002330310534F48C819D818130910569F0D0
:1004B0005FC02C813D812330310589F18C819D8184
:1004C0008430910509F440C053C0ABE3B0E0EBE3E6
:1004D000F0E08081482F8A81282F30E081E090E091
:1004E000022E02C0880F991F0A94E2F78095842398
:1004F0008C933EC0A8E3B0E0E8E3F0E08081482FB1
:100500008A81282F30E081E090E0022E02C0880F1F
:10051000991F0A94E2F7809584238C9329C0A5E360
:10052000B0E0E5E3F0E08081482F8A81282F30E0B9
:1005300081E090E0022E02C0880F991F0A94E2F732
:10054000809584238C9314C0A2E3B0E0E2E3F0E052
:100550008081482F8A81282F30E081E090E0022EB0
:1005600002C0880F991F0A94E2F7809584238C9328
:1005700027960FB6F894DEBF0FBECDBFCF91DF91A7
:100580000895DF93CF9300D000D00F92CDB7DEB7A0
:100590008A836B8319828A81282F30E03D832C83E4
:1005A0004C815D814230510541F18C819D818330C8
:1005B000910534F42C813D812130310561F052C028
:1005C0004C815D814330510551F18C819D81843096
:1005D0009105B9F147C0E9E3F0E08081282F30E0D0
:1005E0008B81882F90E0A90102C0559547958A9587
:1005F000E2F7CA018170898335C0E6E3F0E08081CB
:10060000282F30E08B81882F90E0A90102C05595FA
:1006100047958A95E2F7CA018170898323C0E3E395
:10062000F0E08081282F30E08B81882F90E0A901B5
:1006300002C0559547958A95E2F7CA018170898372
:1006400011C0E0E3F0E08081282F30E08B81882F1B
:1006500090E0A90102C0559547958A95E2F7CA0135
:100660008170898389810F900F900F900F900F9068
:10067000CF91DF910895DF93CF9300D00F92CDB744
:10068000DEB789836A834B8389816A814B810E94AB
:10069000C3010F900F900F90CF91DF910895DF93DA
:1006A000CF9300D00F92CDB7DEB78A836B838A8158
:1006B0006B810E94C10289838981813031F48A81F2
:1006C0006B8140E00E94C30108C08981882329F41E
:1006D0008A816B8141E00E94C3010F900F900F90BF
:1006E000CF91DF910895DF93CF9300D0CDB7DEB7E0
:1006F00089836A838A81813041F48981882F90E0DF
:100700006FEF70E00E9481010AC08A81882339F46A
:100710008981882F90E060E070E00E9481010F9055
:100720000F90CF91DF910895DF93CF9300D000D049
:100730000F92CDB7DEB769837A838B839C834D8319
:100740008D818130A1F48C81882339F48A819B8149
:10075000692F40E00E94C30120C08C818130E9F400
:100760008A819B81692F41E00E94C30116C08D815F
:10077000882399F48C81882339F48A819B81692F9D
:1007800041E00E94C30109C08C81813031F48A812B
:100790009B81692F40E00E94C3010F900F900F9042
:1007A0000F900F90CF91DF910895DF93CF9300D0FA
:1007B00000D00F92CDB7DEB769837A838B839C8399
:1007C0004D838C81882389F48981482F50E08D8165
:1007D000882F90E0FC01E05AFF4F8081282F30E005
:1007E000CA01B9010E94810116C08C81813099F43F
:1007F0008981482F50E08D81882F90E0FC01E05ADC
:10080000FF4F8081882F90E09C0120953095CA0190
:10081000B9010E9481010F900F900F900F900F90DF
:10082000CF91DF910895DF93CF9300D0CDB7DEB79E
:100830009A83898389819A81692F40E00E9483008D
:1008400089819A81692F41E00E94C3010F900F9026
:10085000CF91DF910895DF93CF9300D00F92CDB762
:10086000DEB79A83898389819A81692F0E94C102A8
:100870001B82882311F481E08B838B810F900F9072
:100880000F90CF91DF910895DF93CF9300D0CDB734
:10089000DEB784E06FEF0E94410081E089831A8215
:1008A00089819A810E94130489819A810E942B0474
:1008B000813029F484E061E00E947303F5CF8981DF
:1008C0009A810E942B04882379F784E060E00E94DB
:0808D0007303EACFF894FFCF97
:0A08D8003F065B4F666D7D077F6FE2
:00000001FF
